{
  "_format": "hh-sol-artifact-1",
  "contractName": "Loans",
  "sourceName": "contracts/Loan.sol",
  "abi": [
    {
      "inputs": [],
      "stateMutability": "nonpayable",
      "type": "constructor"
    },
    {
      "anonymous": false,
      "inputs": [
        {
          "indexed": false,
          "internalType": "address",
          "name": "recipient",
          "type": "address"
        },
        {
          "indexed": false,
          "internalType": "uint256",
          "name": "loanId",
          "type": "uint256"
        }
      ],
      "name": "Applyforloan",
      "type": "event"
    },
    {
      "anonymous": false,
      "inputs": [
        {
          "indexed": false,
          "internalType": "uint256",
          "name": "loanId",
          "type": "uint256"
        },
        {
          "indexed": false,
          "internalType": "bool",
          "name": "isDeleted",
          "type": "bool"
        }
      ],
      "name": "DeleteLoan",
      "type": "event"
    },
    {
      "anonymous": false,
      "inputs": [
        {
          "indexed": false,
          "internalType": "uint256",
          "name": "loanId",
          "type": "uint256"
        },
        {
          "indexed": false,
          "internalType": "string",
          "name": "status",
          "type": "string"
        }
      ],
      "name": "UpdateLoan",
      "type": "event"
    },
    {
      "inputs": [
        {
          "internalType": "string",
          "name": "fullname",
          "type": "string"
        },
        {
          "internalType": "string",
          "name": "location",
          "type": "string"
        },
        {
          "internalType": "uint256",
          "name": "amount",
          "type": "uint256"
        },
        {
          "internalType": "uint256",
          "name": "year",
          "type": "uint256"
        }
      ],
      "name": "applyForLoan",
      "outputs": [],
      "stateMutability": "nonpayable",
      "type": "function"
    },
    {
      "inputs": [
        {
          "internalType": "uint256",
          "name": "loanId",
          "type": "uint256"
        },
        {
          "internalType": "bool",
          "name": "isDeleted",
          "type": "bool"
        }
      ],
      "name": "deleteLoan",
      "outputs": [],
      "stateMutability": "nonpayable",
      "type": "function"
    },
    {
      "inputs": [],
      "name": "getAlLoans",
      "outputs": [
        {
          "components": [
            {
              "internalType": "uint256",
              "name": "id",
              "type": "uint256"
            },
            {
              "internalType": "address",
              "name": "borrower",
              "type": "address"
            },
            {
              "internalType": "string",
              "name": "fullname",
              "type": "string"
            },
            {
              "internalType": "string",
              "name": "location",
              "type": "string"
            },
            {
              "internalType": "uint256",
              "name": "amount",
              "type": "uint256"
            },
            {
              "internalType": "uint256",
              "name": "rate",
              "type": "uint256"
            },
            {
              "internalType": "uint256",
              "name": "year",
              "type": "uint256"
            },
            {
              "internalType": "uint256",
              "name": "interestperyear",
              "type": "uint256"
            },
            {
              "internalType": "uint256",
              "name": "totalpayment",
              "type": "uint256"
            },
            {
              "internalType": "uint256",
              "name": "monthlypayment",
              "type": "uint256"
            },
            {
              "internalType": "string",
              "name": "status",
              "type": "string"
            },
            {
              "internalType": "bool",
              "name": "isDeleted",
              "type": "bool"
            }
          ],
          "internalType": "struct Loans.Loan[]",
          "name": "",
          "type": "tuple[]"
        }
      ],
      "stateMutability": "view",
      "type": "function"
    },
    {
      "inputs": [],
      "name": "getMyLoans",
      "outputs": [
        {
          "components": [
            {
              "internalType": "uint256",
              "name": "id",
              "type": "uint256"
            },
            {
              "internalType": "address",
              "name": "borrower",
              "type": "address"
            },
            {
              "internalType": "string",
              "name": "fullname",
              "type": "string"
            },
            {
              "internalType": "string",
              "name": "location",
              "type": "string"
            },
            {
              "internalType": "uint256",
              "name": "amount",
              "type": "uint256"
            },
            {
              "internalType": "uint256",
              "name": "rate",
              "type": "uint256"
            },
            {
              "internalType": "uint256",
              "name": "year",
              "type": "uint256"
            },
            {
              "internalType": "uint256",
              "name": "interestperyear",
              "type": "uint256"
            },
            {
              "internalType": "uint256",
              "name": "totalpayment",
              "type": "uint256"
            },
            {
              "internalType": "uint256",
              "name": "monthlypayment",
              "type": "uint256"
            },
            {
              "internalType": "string",
              "name": "status",
              "type": "string"
            },
            {
              "internalType": "bool",
              "name": "isDeleted",
              "type": "bool"
            }
          ],
          "internalType": "struct Loans.Loan[]",
          "name": "",
          "type": "tuple[]"
        }
      ],
      "stateMutability": "view",
      "type": "function"
    },
    {
      "inputs": [],
      "name": "owner",
      "outputs": [
        {
          "internalType": "address",
          "name": "",
          "type": "address"
        }
      ],
      "stateMutability": "view",
      "type": "function"
    },
    {
      "inputs": [
        {
          "internalType": "uint256",
          "name": "loanId",
          "type": "uint256"
        },
        {
          "internalType": "string",
          "name": "status",
          "type": "string"
        }
      ],
      "name": "updateLoan",
      "outputs": [],
      "stateMutability": "nonpayable",
      "type": "function"
    }
  ],
  "bytecode": "0x608060405234801561001057600080fd5b50336000806101000a81548173ffffffffffffffffffffffffffffffffffffffff021916908373ffffffffffffffffffffffffffffffffffffffff160217905550611ac2806100606000396000f3fe608060405234801561001057600080fd5b50600436106100625760003560e01c80636b55f4e4146100675780638da5cb5b14610083578063c3254d97146100a1578063c6cfd929146100bf578063d6aa59a1146100db578063e1236cdb146100f7575b600080fd5b610081600480360381019061007c9190611209565b610115565b005b61008b6103e3565b60405161009891906115b6565b60405180910390f35b6100a9610407565b6040516100b691906115fa565b60405180910390f35b6100d960048036038101906100d4919061129c565b6109bf565b005b6100f560048036038101906100f091906112d8565b610aed565b005b6100ff610c18565b60405161010c91906115fa565b60405180910390f35b6000600180549050905060006004905060006064828661013591906117d8565b61013f91906117a7565b9050600085858361015091906117d8565b61015a9190611751565b90506000600c8661016b91906117d8565b8261017691906117a7565b905060016040518061018001604052808781526020013373ffffffffffffffffffffffffffffffffffffffff1681526020018b81526020018a81526020018981526020018681526020018881526020018581526020018481526020018381526020016040518060400160405280600781526020017f50656e64696e670000000000000000000000000000000000000000000000000081525081526020016000151581525090806001815401808255809150506001900390600052602060002090600c02016000909190919091506000820151816000015560208201518160010160006101000a81548173ffffffffffffffffffffffffffffffffffffffff021916908373ffffffffffffffffffffffffffffffffffffffff16021790555060408201518160020190805190602001906102b092919061105b565b5060608201518160030190805190602001906102cd92919061105b565b506080820151816004015560a0820151816005015560c0820151816006015560e082015181600701556101008201518160080155610120820151816009015561014082015181600a01908051906020019061032992919061105b565b5061016082015181600b0160006101000a81548160ff0219169083151502179055505050336002600087815260200190815260200160002060006101000a81548173ffffffffffffffffffffffffffffffffffffffff021916908373ffffffffffffffffffffffffffffffffffffffff1602179055507ffaefa643f25dcd787e03f1db6720233d5a789beb52eebc90e8afde49434a168d33866040516103d09291906115d1565b60405180910390a1505050505050505050565b60008054906101000a900473ffffffffffffffffffffffffffffffffffffffff1681565b6060600060018054905067ffffffffffffffff811115610450577f4e487b7100000000000000000000000000000000000000000000000000000000600052604160045260246000fd5b60405190808252806020026020018201604052801561048957816020015b6104766110e1565b81526020019060019003908161046e5790505b5090506000805b600180549050811015610893573373ffffffffffffffffffffffffffffffffffffffff166002600083815260200190815260200160002060009054906101000a900473ffffffffffffffffffffffffffffffffffffffff1673ffffffffffffffffffffffffffffffffffffffff1614801561056757506000151560018281548110610544577f4e487b7100000000000000000000000000000000000000000000000000000000600052603260045260246000fd5b90600052602060002090600c0201600b0160009054906101000a900460ff161515145b1561088057600181815481106105a6577f4e487b7100000000000000000000000000000000000000000000000000000000600052603260045260246000fd5b90600052602060002090600c020160405180610180016040529081600082015481526020016001820160009054906101000a900473ffffffffffffffffffffffffffffffffffffffff1673ffffffffffffffffffffffffffffffffffffffff1673ffffffffffffffffffffffffffffffffffffffff168152602001600282018054610630906118bc565b80601f016020809104026020016040519081016040528092919081815260200182805461065c906118bc565b80156106a95780601f1061067e576101008083540402835291602001916106a9565b820191906000526020600020905b81548152906001019060200180831161068c57829003601f168201915b505050505081526020016003820180546106c2906118bc565b80601f01602080910402602001604051908101604052809291908181526020018280546106ee906118bc565b801561073b5780601f106107105761010080835404028352916020019161073b565b820191906000526020600020905b81548152906001019060200180831161071e57829003601f168201915b50505050508152602001600482015481526020016005820154815260200160068201548152602001600782015481526020016008820154815260200160098201548152602001600a82018054610790906118bc565b80601f01602080910402602001604051908101604052809291908181526020018280546107bc906118bc565b80156108095780601f106107de57610100808354040283529160200191610809565b820191906000526020600020905b8154815290600101906020018083116107ec57829003601f168201915b50505050508152602001600b820160009054906101000a900460ff161515151581525050838381518110610866577f4e487b7100000000000000000000000000000000000000000000000000000000600052603260045260246000fd5b6020026020010181905250818061087c9061191f565b9250505b808061088b9061191f565b915050610490565b5060008167ffffffffffffffff8111156108d6577f4e487b7100000000000000000000000000000000000000000000000000000000600052604160045260246000fd5b60405190808252806020026020018201604052801561090f57816020015b6108fc6110e1565b8152602001906001900390816108f45790505b50905060005b828110156109b557838181518110610956577f4e487b7100000000000000000000000000000000000000000000000000000000600052603260045260246000fd5b6020026020010151828281518110610997577f4e487b7100000000000000000000000000000000000000000000000000000000600052603260045260246000fd5b602002602001018190525080806109ad9061191f565b915050610915565b5080935050505090565b60008054906101000a900473ffffffffffffffffffffffffffffffffffffffff1673ffffffffffffffffffffffffffffffffffffffff163373ffffffffffffffffffffffffffffffffffffffff1614610a4d576040517f08c379a0000000000000000000000000000000000000000000000000000000008152600401610a449061161c565b60405180910390fd5b8060018381548110610a88577f4e487b7100000000000000000000000000000000000000000000000000000000600052603260045260246000fd5b90600052602060002090600c0201600b0160006101000a81548160ff0219169083151502179055507f233aa42b2ee9d7776c30d178756ef3b89162c17c407e7fd8968c41f92945f1018282604051610ae192919061163c565b60405180910390a15050565b60008054906101000a900473ffffffffffffffffffffffffffffffffffffffff1673ffffffffffffffffffffffffffffffffffffffff163373ffffffffffffffffffffffffffffffffffffffff1614610b7b576040517f08c379a0000000000000000000000000000000000000000000000000000000008152600401610b729061161c565b60405180910390fd5b8060018381548110610bb6577f4e487b7100000000000000000000000000000000000000000000000000000000600052603260045260246000fd5b90600052602060002090600c0201600a019080519060200190610bda92919061105b565b507f050df756ac790f278765dcb8bd3ebfb923a8c055c40449b89f57cd5507dd3b8a8282604051610c0c929190611665565b60405180910390a15050565b606060008054906101000a900473ffffffffffffffffffffffffffffffffffffffff1673ffffffffffffffffffffffffffffffffffffffff163373ffffffffffffffffffffffffffffffffffffffff1614610ca8576040517f08c379a0000000000000000000000000000000000000000000000000000000008152600401610c9f9061161c565b60405180910390fd5b600060018054905067ffffffffffffffff811115610cef577f4e487b7100000000000000000000000000000000000000000000000000000000600052604160045260246000fd5b604051908082528060200260200182016040528015610d2857816020015b610d156110e1565b815260200190600190039081610d0d5790505b50905060005b6001805490508110156110535760018181548110610d75577f4e487b7100000000000000000000000000000000000000000000000000000000600052603260045260246000fd5b90600052602060002090600c020160405180610180016040529081600082015481526020016001820160009054906101000a900473ffffffffffffffffffffffffffffffffffffffff1673ffffffffffffffffffffffffffffffffffffffff1673ffffffffffffffffffffffffffffffffffffffff168152602001600282018054610dff906118bc565b80601f0160208091040260200160405190810160405280929190818152602001828054610e2b906118bc565b8015610e785780601f10610e4d57610100808354040283529160200191610e78565b820191906000526020600020905b815481529060010190602001808311610e5b57829003601f168201915b50505050508152602001600382018054610e91906118bc565b80601f0160208091040260200160405190810160405280929190818152602001828054610ebd906118bc565b8015610f0a5780601f10610edf57610100808354040283529160200191610f0a565b820191906000526020600020905b815481529060010190602001808311610eed57829003601f168201915b50505050508152602001600482015481526020016005820154815260200160068201548152602001600782015481526020016008820154815260200160098201548152602001600a82018054610f5f906118bc565b80601f0160208091040260200160405190810160405280929190818152602001828054610f8b906118bc565b8015610fd85780601f10610fad57610100808354040283529160200191610fd8565b820191906000526020600020905b815481529060010190602001808311610fbb57829003601f168201915b50505050508152602001600b820160009054906101000a900460ff161515151581525050828281518110611035577f4e487b7100000000000000000000000000000000000000000000000000000000600052603260045260246000fd5b6020026020010181905250808061104b9061191f565b915050610d2e565b508091505090565b828054611067906118bc565b90600052602060002090601f01602090048101928261108957600085556110d0565b82601f106110a257805160ff19168380011785556110d0565b828001600101855582156110d0579182015b828111156110cf5782518255916020019190600101906110b4565b5b5090506110dd919061115a565b5090565b60405180610180016040528060008152602001600073ffffffffffffffffffffffffffffffffffffffff1681526020016060815260200160608152602001600081526020016000815260200160008152602001600081526020016000815260200160008152602001606081526020016000151581525090565b5b8082111561117357600081600090555060010161115b565b5090565b600061118a611185846116ba565b611695565b9050828152602081018484840111156111a257600080fd5b6111ad84828561187a565b509392505050565b6000813590506111c481611a5e565b92915050565b600082601f8301126111db57600080fd5b81356111eb848260208601611177565b91505092915050565b60008135905061120381611a75565b92915050565b6000806000806080858703121561121f57600080fd5b600085013567ffffffffffffffff81111561123957600080fd5b611245878288016111ca565b945050602085013567ffffffffffffffff81111561126257600080fd5b61126e878288016111ca565b935050604061127f878288016111f4565b9250506060611290878288016111f4565b91505092959194509250565b600080604083850312156112af57600080fd5b60006112bd858286016111f4565b92505060206112ce858286016111b5565b9150509250929050565b600080604083850312156112eb57600080fd5b60006112f9858286016111f4565b925050602083013567ffffffffffffffff81111561131657600080fd5b611322858286016111ca565b9150509250929050565b60006113388383611486565b905092915050565b61134981611832565b82525050565b61135881611832565b82525050565b6000611369826116fb565b611373818561171e565b935083602082028501611385856116eb565b8060005b858110156113c157848403895281516113a2858261132c565b94506113ad83611711565b925060208a01995050600181019050611389565b50829750879550505050505092915050565b6113dc81611844565b82525050565b6113eb81611844565b82525050565b60006113fc82611706565b611406818561172f565b9350611416818560208601611889565b61141f81611a24565b840191505092915050565b600061143582611706565b61143f8185611740565b935061144f818560208601611889565b61145881611a24565b840191505092915050565b6000611470600c83611740565b915061147b82611a35565b602082019050919050565b60006101808301600083015161149f6000860182611598565b5060208301516114b26020860182611340565b50604083015184820360408601526114ca82826113f1565b915050606083015184820360608601526114e482826113f1565b91505060808301516114f96080860182611598565b5060a083015161150c60a0860182611598565b5060c083015161151f60c0860182611598565b5060e083015161153260e0860182611598565b50610100830151611547610100860182611598565b5061012083015161155c610120860182611598565b5061014083015184820361014086015261157682826113f1565b91505061016083015161158d6101608601826113d3565b508091505092915050565b6115a181611870565b82525050565b6115b081611870565b82525050565b60006020820190506115cb600083018461134f565b92915050565b60006040820190506115e6600083018561134f565b6115f360208301846115a7565b9392505050565b60006020820190508181036000830152611614818461135e565b905092915050565b6000602082019050818103600083015261163581611463565b9050919050565b600060408201905061165160008301856115a7565b61165e60208301846113e2565b9392505050565b600060408201905061167a60008301856115a7565b818103602083015261168c818461142a565b90509392505050565b600061169f6116b0565b90506116ab82826118ee565b919050565b6000604051905090565b600067ffffffffffffffff8211156116d5576116d46119f5565b5b6116de82611a24565b9050602081019050919050565b6000819050602082019050919050565b600081519050919050565b600081519050919050565b6000602082019050919050565b600082825260208201905092915050565b600082825260208201905092915050565b600082825260208201905092915050565b600061175c82611870565b915061176783611870565b9250827fffffffffffffffffffffffffffffffffffffffffffffffffffffffffffffffff0382111561179c5761179b611968565b5b828201905092915050565b60006117b282611870565b91506117bd83611870565b9250826117cd576117cc611997565b5b828204905092915050565b60006117e382611870565b91506117ee83611870565b9250817fffffffffffffffffffffffffffffffffffffffffffffffffffffffffffffffff048311821515161561182757611826611968565b5b828202905092915050565b600061183d82611850565b9050919050565b60008115159050919050565b600073ffffffffffffffffffffffffffffffffffffffff82169050919050565b6000819050919050565b82818337600083830152505050565b60005b838110156118a757808201518184015260208101905061188c565b838111156118b6576000848401525b50505050565b600060028204905060018216806118d457607f821691505b602082108114156118e8576118e76119c6565b5b50919050565b6118f782611a24565b810181811067ffffffffffffffff82111715611916576119156119f5565b5b80604052505050565b600061192a82611870565b91507fffffffffffffffffffffffffffffffffffffffffffffffffffffffffffffffff82141561195d5761195c611968565b5b600182019050919050565b7f4e487b7100000000000000000000000000000000000000000000000000000000600052601160045260246000fd5b7f4e487b7100000000000000000000000000000000000000000000000000000000600052601260045260246000fd5b7f4e487b7100000000000000000000000000000000000000000000000000000000600052602260045260246000fd5b7f4e487b7100000000000000000000000000000000000000000000000000000000600052604160045260246000fd5b6000601f19601f8301169050919050565b7f556e617574686f72697365640000000000000000000000000000000000000000600082015250565b611a6781611844565b8114611a7257600080fd5b50565b611a7e81611870565b8114611a8957600080fd5b5056fea26469706673582212203df3e6996087c3322cb94d18ea64d9a9a850c5cb29db1673e267e0112763a07264736f6c63430008040033",
  "linkReferences": {},
  "deployedLinkReferences": {}
}